{
  "contractName": "Healthcare",
  "abi": [
    {
      "inputs": [],
      "stateMutability": "nonpayable",
      "type": "constructor"
    },
    {
      "anonymous": false,
      "inputs": [
        {
          "indexed": false,
          "internalType": "uint256",
          "name": "id",
          "type": "uint256"
        },
        {
          "indexed": false,
          "internalType": "string",
          "name": "test_name",
          "type": "string"
        },
        {
          "indexed": false,
          "internalType": "string",
          "name": "date",
          "type": "string"
        },
        {
          "indexed": false,
          "internalType": "string",
          "name": "fileURL",
          "type": "string"
        },
        {
          "indexed": false,
          "internalType": "address",
          "name": "patient",
          "type": "address"
        }
      ],
      "name": "ReportCreated",
      "type": "event"
    },
    {
      "inputs": [],
      "name": "name",
      "outputs": [
        {
          "internalType": "string",
          "name": "",
          "type": "string"
        }
      ],
      "stateMutability": "view",
      "type": "function"
    },
    {
      "inputs": [],
      "name": "reportCount",
      "outputs": [
        {
          "internalType": "uint256",
          "name": "",
          "type": "uint256"
        }
      ],
      "stateMutability": "view",
      "type": "function"
    },
    {
      "inputs": [
        {
          "internalType": "uint256",
          "name": "",
          "type": "uint256"
        }
      ],
      "name": "reports",
      "outputs": [
        {
          "internalType": "uint256",
          "name": "id",
          "type": "uint256"
        },
        {
          "internalType": "string",
          "name": "test_name",
          "type": "string"
        },
        {
          "internalType": "string",
          "name": "date",
          "type": "string"
        },
        {
          "internalType": "string",
          "name": "fileURL",
          "type": "string"
        },
        {
          "internalType": "address",
          "name": "patient",
          "type": "address"
        }
      ],
      "stateMutability": "view",
      "type": "function"
    },
    {
      "inputs": [
        {
          "internalType": "string",
          "name": "_test_name",
          "type": "string"
        },
        {
          "internalType": "string",
          "name": "_date",
          "type": "string"
        },
        {
          "internalType": "string",
          "name": "_url",
          "type": "string"
        }
      ],
      "name": "createReport",
      "outputs": [],
      "stateMutability": "nonpayable",
      "type": "function"
    }
  ],
  "bytecode": "0x6080604052600060015534801561001557600080fd5b506040518060400160405280601481526020017f4865616c746863617265206e616d65207465737400000000000000000000000081525060009080519060200190610061929190610067565b5061016b565b8280546100739061010a565b90600052602060002090601f01602090048101928261009557600085556100dc565b82601f106100ae57805160ff19168380011785556100dc565b828001600101855582156100dc579182015b828111156100db5782518255916020019190600101906100c0565b5b5090506100e991906100ed565b5090565b5b808211156101065760008160009055506001016100ee565b5090565b6000600282049050600182168061012257607f821691505b602082108114156101365761013561013c565b5b50919050565b7f4e487b7100000000000000000000000000000000000000000000000000000000600052602260045260246000fd5b610a078061017a6000396000f3fe608060405234801561001057600080fd5b506004361061004c5760003560e01c806306fdde0314610051578063185c6f841461006f578063893fbece1461008d578063c942adf7146100a9575b600080fd5b6100596100dd565b6040516100669190610701565b60405180910390f35b61007761016b565b6040516100849190610723565b60405180910390f35b6100a760048036038101906100a291906105ea565b610171565b005b6100c360048036038101906100be9190610681565b6102dc565b6040516100d495949392919061073e565b60405180910390f35b600080546100ea906108a1565b80601f0160208091040260200160405190810160405280929190818152602001828054610116906108a1565b80156101635780601f1061013857610100808354040283529160200191610163565b820191906000526020600020905b81548152906001019060200180831161014657829003601f168201915b505050505081565b60015481565b600083511161017f57600080fd5b60016000815480929190610192906108d3565b91905055506040518060a0016040528060015481526020018481526020018381526020018281526020013373ffffffffffffffffffffffffffffffffffffffff168152506002600060015481526020019081526020016000206000820151816000015560208201518160010190805190602001906102119291906104ca565b50604082015181600201908051906020019061022e9291906104ca565b50606082015181600301908051906020019061024b9291906104ca565b5060808201518160040160006101000a81548173ffffffffffffffffffffffffffffffffffffffff021916908373ffffffffffffffffffffffffffffffffffffffff1602179055509050507fce05feb2dad8d12305521c825085727578e99b6119f8b5d9e3f95d90b7cb3412600154848484336040516102cf95949392919061073e565b60405180910390a1505050565b6002602052806000526040600020600091509050806000015490806001018054610305906108a1565b80601f0160208091040260200160405190810160405280929190818152602001828054610331906108a1565b801561037e5780601f106103535761010080835404028352916020019161037e565b820191906000526020600020905b81548152906001019060200180831161036157829003601f168201915b505050505090806002018054610393906108a1565b80601f01602080910402602001604051908101604052809291908181526020018280546103bf906108a1565b801561040c5780601f106103e15761010080835404028352916020019161040c565b820191906000526020600020905b8154815290600101906020018083116103ef57829003601f168201915b505050505090806003018054610421906108a1565b80601f016020809104026020016040519081016040528092919081815260200182805461044d906108a1565b801561049a5780601f1061046f5761010080835404028352916020019161049a565b820191906000526020600020905b81548152906001019060200180831161047d57829003601f168201915b5050505050908060040160009054906101000a900473ffffffffffffffffffffffffffffffffffffffff16905085565b8280546104d6906108a1565b90600052602060002090601f0160209004810192826104f8576000855561053f565b82601f1061051157805160ff191683800117855561053f565b8280016001018555821561053f579182015b8281111561053e578251825591602001919060010190610523565b5b50905061054c9190610550565b5090565b5b80821115610569576000816000905550600101610551565b5090565b600061058061057b846107d7565b6107a6565b90508281526020810184848401111561059857600080fd5b6105a384828561085f565b509392505050565b600082601f8301126105bc57600080fd5b81356105cc84826020860161056d565b91505092915050565b6000813590506105e4816109ba565b92915050565b6000806000606084860312156105ff57600080fd5b600084013567ffffffffffffffff81111561061957600080fd5b610625868287016105ab565b935050602084013567ffffffffffffffff81111561064257600080fd5b61064e868287016105ab565b925050604084013567ffffffffffffffff81111561066b57600080fd5b610677868287016105ab565b9150509250925092565b60006020828403121561069357600080fd5b60006106a1848285016105d5565b91505092915050565b6106b381610823565b82525050565b60006106c482610807565b6106ce8185610812565b93506106de81856020860161086e565b6106e7816109a9565b840191505092915050565b6106fb81610855565b82525050565b6000602082019050818103600083015261071b81846106b9565b905092915050565b600060208201905061073860008301846106f2565b92915050565b600060a08201905061075360008301886106f2565b818103602083015261076581876106b9565b9050818103604083015261077981866106b9565b9050818103606083015261078d81856106b9565b905061079c60808301846106aa565b9695505050505050565b6000604051905081810181811067ffffffffffffffff821117156107cd576107cc61097a565b5b8060405250919050565b600067ffffffffffffffff8211156107f2576107f161097a565b5b601f19601f8301169050602081019050919050565b600081519050919050565b600082825260208201905092915050565b600061082e82610835565b9050919050565b600073ffffffffffffffffffffffffffffffffffffffff82169050919050565b6000819050919050565b82818337600083830152505050565b60005b8381101561088c578082015181840152602081019050610871565b8381111561089b576000848401525b50505050565b600060028204905060018216806108b957607f821691505b602082108114156108cd576108cc61094b565b5b50919050565b60006108de82610855565b91507fffffffffffffffffffffffffffffffffffffffffffffffffffffffffffffffff8214156109115761091061091c565b5b600182019050919050565b7f4e487b7100000000000000000000000000000000000000000000000000000000600052601160045260246000fd5b7f4e487b7100000000000000000000000000000000000000000000000000000000600052602260045260246000fd5b7f4e487b7100000000000000000000000000000000000000000000000000000000600052604160045260246000fd5b6000601f19601f8301169050919050565b6109c381610855565b81146109ce57600080fd5b5056fea26469706673582212209828d59ff09209386404c42b7664fc60343101411cff984bbd3f9654961dc14264736f6c63430008000033",
  "immutableReferences": {},
  "source": "// SPDX-License-Identifier: MIT\r\npragma solidity ^0.8.0; //Solidity version\r\n\r\ncontract Healthcare {\r\n    string public name;\r\n    \r\n    uint public reportCount = 0 ;\r\n    mapping(uint => Report) public reports;\r\n\r\n    struct Report {\r\n        uint id;\r\n        string test_name;\r\n        string date;\r\n        string fileURL;\r\n        address patient;\r\n    }\r\n\r\n    event ReportCreated(\r\n        uint id,\r\n        string test_name,\r\n        string date,\r\n        string fileURL,\r\n        address patient\r\n    );\r\n\r\n    constructor() {\r\n        name = \"Healthcare name test\";\r\n    }\r\n\r\n    function createReport(string memory _test_name, string memory _date, string memory _url) public {\r\n        // Require a valid name\r\n        require(bytes(_test_name).length > 0);\r\n        // Increment report count\r\n        reportCount ++;\r\n        // Create the report\r\n        reports[reportCount] = Report(reportCount, _test_name, _date, _url, msg.sender);\r\n        \r\n        emit ReportCreated(reportCount, _test_name, _date, _url, msg.sender);\r\n    }\r\n}",
  "sourcePath": "E:\\Thesis\\BlockChain\\healthcare\\src\\contracts\\Healthcare.sol",
  "compiler": {
    "name": "solc",
    "version": "0.8.0+commit.c7dfd78e.Emscripten.clang"
  },
  "schemaVersion": "3.4.16",
  "updatedAt": "2024-02-21T08:27:39.666Z",
  "devdoc": {
    "kind": "dev",
    "methods": {},
    "version": 1
  },
  "userdoc": {
    "kind": "user",
    "methods": {},
    "version": 1
  }
}